:020000040800F2
:1000000000280020C90100080D0200080D020008A8
:100010000D0200080D0200080D020008000000009B
:100020000000000000000000000000000D020008B9
:100030000D020008000000000D0200080D0200087B
:100040000D0200080D0200080D0200080D02000854
:100050000D0200080D0200080D0200080D02000844
:100060000D0200080D0200080D0200080D02000834
:100070000D0200080D0200080D0200080D02000824
:100080000D0200080D0200080D0200080D02000814
:100090000D0200080D0200080D0200080D02000804
:1000A0000D0200080D0200080D0200080D020008F4
:1000B0000D0200080D020008000000000D020008FB
:1000C0000D02000800000000000000000D02000802
:1000D000000000000D0200080D02000800000000F2
:1000E0000D0200080D0200080D02000800000000CB
:1000F0000000000000000000000000000000000000
:0C01000000000000000000005FF808F1A3
:10010C0010B5054C237833B9044B13B10448AFF345
:10011C0000800123237010BD0000002000000000AF
:10012C005802000808B5034B1BB103490348AFF351
:10013C00008008BD000000000400002058020008E8
:10014C0080B483B000AF1A4B1B68194A43F0040308
:10015C001360184B1B68174A23F470031360154B7C
:10016C001B68144A43F400131360134B1B68124AA8
:10017C0023F40053136000237B6002E07B6801339F
:10018C007B607B6841F287329342F7D90A4B1B683C
:10019C00094A83F40053136000233B6002E03B6880
:1001AC0001333B603B6841F287329342F7D9E2E777
:1001BC0018100240040801400C0801400B480C497F
:1001CC000C4A002302E0D458C4500433C4188C42A7
:1001DC00F9D3094A094C002301E013600432A2420E
:1001EC00FBD300F00FF8FFF7ABFF704700000020C7
:1001FC000000002078020008000000201C000020F5
:10020C00FEE7000070B500250C4E0D4CA41BA4108D
:10021C00A54209D100F01AF800250A4E0A4CA41B7D
:10022C00A410A54205D170BD56F82530984701356C
:10023C00EEE756F8253098470135F2E770020008D2
:10024C00700200087002000874020008F8B500BFC4
:10025C00F8BC08BC9E467047F8B500BFF8BC08BC9B
:04026C009E467047F3
:040270003101000850
:040274000D01000870
:04000005080001C925
:00000001FF
